:100000000C9446000C9465000C9465000C946500FB
:100010000C9465000C9465000C9465000C946500CC
:100020000C9465000C9465000C9465000C946500BC
:100030000C9465000C94A2020C9465000C9465006D
:100040000C9465000C9465000C9465000C9465009C
:100050000C9465000C9465000C9465000C9465008C
:100060000C9465000C9465000C9465000C9465007C
:100070000C9465000C9465000C9465000C9465006C
:100080000C9465000C9465000C94650011241FBE4F
:10009000CFEFD0E4DEBFCDBF11E0A0E0B1E0E8E5F6
:1000A000F8E000E00BBF02C007900D92A432B10748
:1000B000D9F721E0A4E2B1E001C01D92A535B20755
:1000C000E1F70E9403030C942A040C940000CF93E0
:1000D000DF9300D000D0CDB7DEB769837A838B83FE
:1000E0009C83E1ECF0E0808188618083E2ECF0E0C9
:1000F00080818664808329813A814B815C81220FD3
:10010000331F441F551F220F331F441F551F220F3B
:10011000331F441F551F220F331F441F551F60E01C
:1001200072E18AE790E00E9408048FEF820F8093CB
:10013000C4002150310941095109232F342F452F83
:1001400055272093C5000F900F900F900F90DF91CF
:10015000CF9108958091C0008823E4F78091C60074
:1001600008958093C6008091C00085FFFCCF08955C
:100170000F931F93CF93DF93082F192FD0E0C0E088
:10018000F801EC0FFD1F8081882321F00E94B1004F
:100190002196F6CFDF91CF911F910F910895FF9295
:1001A0000F931F93CF93DF93482FF92E062F172F0E
:1001B000C80102970F97E0F410923401C4E3D1E034
:1001C000842F9F2DB8010E94F403FC01EE5EFE4FC8
:1001D00080818A93242F3F2D462FF72E2017310739
:1001E00078F7CE01DF91CF911F910F91FF90089585
:1001F000D0E0C0E0F6CF482F592F30E020E002C019
:100200002F5F3F4F241735074CF490E080E0873094
:1002100063E09607ACF700000196F9CF08959BB113
:100220009F7B9BB988B98BB180688BB900008BB17B
:100230008F778BB982E090E00E94FB00089581E007
:100240000E940F010895813120F481580E940F010E
:10025000089581550E940F01089584E690E00E9460
:10026000FB0088E30E940F0186E00E940F018FE0EF
:100270000E940F0181E00E940F018AE090E00E943D
:10028000FB0008959BB190649BB988B98BB18068DD
:100290008BB900008BB18F778BB981E090E00E9421
:1002A000FB0008950F931F93CF93DF93182FC62F52
:1002B000D72F0E941F018881882351F001E0010F90
:1002C000812F0E94230189910E944201102FF3CFB8
:1002D000DF91CF911F910F910895CF93C82F8A304E
:1002E00051F09091C00095FFFCCFC093C60090E004
:1002F00080E0CF9108958DE00E946D01F2CF90E0F3
:1003000080E00895CF93DF93C82FD92F0E94AA00D1
:1003100080935001209761F0C130D10579F020978A
:10032000A1F0C130D105A1F0CE01DF91CF910895A8
:10033000C1E0813309F0C0E0D0E0F1CFC1E081330A
:1003400011F0D0E0ECCFC0E0FCCF83E088B9ECCF77
:1003500082E088B9E9CF442349F021E030E002C0CF
:10036000220F331F6A95E2F7822B089521E030E0D7
:1003700002C0220F331F6A95E2F720958223089569
:1003800021E030E002C0220F331F6A95E2F782239A
:10039000089540E064E08FEF0E94AB0182B9000055
:1003A00080B160E080950E94C00181117FC080B162
:1003B00061E080950E94C00181117AC080B162E045
:1003C00080950E94C001811175C080B163E0809565
:1003D0000E94C001811170C040E065E08FEF0E9473
:1003E000AB0182B9000080B160E080950E94C0013D
:1003F000811164C080B161E080950E94C0018111CB
:100400005FC080B162E080950E94C00181115AC036
:1004100080B163E080950E94C001811155C040E029
:1004200066E08FEF0E94AB0182B9000080B160E00E
:1004300080950E94C001811149C080B161E0809522
:100440000E94C001811144C080B162E080950E9489
:10045000C00181113FC080B163E080950E94C0015E
:1004600081113AC040E067E08FEF0E94AB0182B992
:10047000000080B160E080950E94C00181112EC013
:1004800080B161E080950E94C001811129C080B1D6
:1004900062E080950E94C001811124C080B163E0B8
:1004A00080950E94C00181111FC0089581E30895C5
:1004B00084E3089587E308958AE2089582E3089526
:1004C00085E3089588E3089580E3089583E308951C
:1004D00086E3089589E3089583E2089581E4089509
:1004E00082E4089583E4089584E4DFCF08958BE0E7
:1004F000809381008DE790E090938900809388003D
:1005000082E080936F0010928500109284008091A9
:10051000000190910101A0910201B091030180932B
:10052000350190933601A0933701B09338018FB70E
:1005300080688FBF089510928100089581E08093B4
:10054000390108951F920F920FB60F9211240BB626
:100550000F922F933F934F935F936F937F938F935C
:100560009F93AF93BF93EF93FF9380913501909149
:100570003601A0913701B09138010197A109B10965
:100580008093350190933601A0933701B0933801E1
:10059000892B8A2B8B2B99F0FF91EF91BF91AF9113
:1005A0009F918F917F916F915F914F913F912F918B
:1005B0000F900BBE0F900FBE0F901F9018950E94CA
:1005C0009E028091000190910101A0910201B091E1
:1005D00003018093350190933601A0933701B093C6
:1005E0003801DACF6093000170930101809302011A
:1005F0009093030160933501709336018093370126
:1006000090933801089500D000D0CDB7DEB78FEFBA
:1006100087B918B811B884B960E875E280E090E055
:100620000E94670081E088B9A5E4B1E0BA83A9839C
:10063000EAE3F1E0FC83EB831C9244E650E060E0E7
:1006400070E011964D935D936D937C93149715967E
:100650004D935D936D937C9318972FE731E01A9635
:100660003C932E93199780834183528363837483D1
:10067000458356836783708782E891E092878187FC
:1006800064E670E080E090E00E94F2020E9477024F
:1006900048C0F80185819681A781B0858C599F4F0C
:1006A000AF4FBF4F85839683A783B087FFEFEF1AC5
:1006B000FF0A82E0E816F10470F5F701EE0FFF1F64
:1006C00081E090E08C0F9D1FE80FF91F00811181E0
:1006D000D80115964D915D916D917C911897119669
:1006E0008D919D910D90BC91A02D481759076A07D7
:1006F0007B0779F6D8011996ED91FC911A978C91A8
:10070000082E000C990B0995F8018083158216823A
:1007100017821086BECF809139018823E1F31092B1
:100720003901F12CE12CC5CF81E08093C50080EA2E
:100730008093C400E0ECF0E080818D7F8083089599
:100740001092C50087E68093C400E0ECF0E0808161
:100750008D7F808308951092C50089E18093C40045
:10076000E0ECF0E080818D7F80830895823029F075
:10077000833049F00E94A00302C00E94940388E1E4
:100780008093C10008950E94AB03F9CF9091C000FF
:1007900095FFFCCF8093C6000895CF93DF93C82FB9
:1007A000D92F8881882321F021960E94C603F9CF92
:1007B000DF91CF910895CF93DF93C82FD92FCE012A
:1007C000FE012491222331F02196FC0184910E94A4
:1007D000C603F5CFDF91CF9108958091C0008823A3
:1007E000E4F78091C6000895AA1BBB1B51E107C026
:1007F000AA1FBB1FA617B70710F0A61BB70B881FB1
:10080000991F5A95A9F780959095BC01CD0108953F
:10081000A1E21A2EAA1BBB1BFD010DC0AA1FBB1F04
:10082000EE1FFF1FA217B307E407F50720F0A21B76
:10083000B30BE40BF50B661F771F881F991F1A94E3
:1008400069F760957095809590959B01AC01BD010D
:08085000CF010895F894FFCFD9
:100858000100000000000002000000006D0100001F
:10086800000030313233343536373839306162631D
:04087800646566004D
:00000001FF
