:100000000C9436010C9455010C9455010C94550137
:100010000C9455010C9455010C9455010C94550108
:100020000C9455010C9455010C9455010C945501F8
:100030000C9455010C9473040C9455010C945501C7
:100040000C9455010C9455010C9455010C945501D8
:100050000C9455010C9455010C9455010C945501C8
:100060000C9455010C9455010C9455010C945501B8
:100070000C9455010C9455010C9455010C945501A8
:100080000C9455010C9455010C945501000000008E
:100090000000005F00000007000700147F147F14B9
:1000A000242A7F2A122313086462364955225000FD
:1000B00005030000001C2241000041221C0014081E
:1000C0003E081408083E08080050300000080808E0
:1000D0000808006060000020100804023E514945F5
:1000E0003E00427F400042615149462141454B312B
:1000F0001814127F1027454545393C4A49493001BB
:10010000710905033649494936064949291E003611
:100110003600000056360000081422410014141462
:100120001414004122140802015109063249794190
:100130003E7E1111117E7F494949363E414141229F
:100140007F4141221C7F494949417F090909013EFC
:100150004149497A7F0808087F00417F41002040DB
:10016000413F017F081422417F404040407F020C04
:10017000027F7F0408107F3E4141413E7F0909090B
:10018000063E4151215E7F091929464649494931B8
:1001900001017F01013F4040403F1F2040201F3FA1
:1001A0004038403F63140814630708700807615122
:1001B000494543007F4141000204081020004141AD
:1001C0007F0004020102044040404040000102045C
:1001D0000020545454787F484444383844444420E0
:1001E000384444487F3854545418087E0901020C9E
:1001F0005252523E7F0804047800447D4000204063
:10020000443D007F1028440000417F40007C0418DA
:1002100004787C0804047838444444387C1414146A
:1002200008081414187C7C0804040848545454200A
:10023000043F4440203C4040207C1C2040201C3C8B
:100240004030403C44281028440C5050503C4464FA
:10025000544C44000836410000007F000000413645
:1002600008001008081008000000000011241FBE3C
:10027000CFEFD0E4DEBFCDBF11E0A0E0B1E0E0E31E
:10028000FFE000E00BBF02C007900D92A436B1075B
:10029000D9F723E0A4E6B1E001C01D92AA39B20764
:1002A000E1F70E94D4040C9496070C940000CF93BD
:1002B000DF9300D000D0CDB7DEB769837A838B831C
:1002C0009C83E1ECF0E0808188698083E2ECF0E0DF
:1002D00080818664808329813A814B815C81220FF1
:1002E000331F441F551F220F331F441F551F220F5A
:1002F000331F441F551F220F331F441F551F60E03B
:1003000072E18AE790E00E9474078FEF820F80937A
:10031000C4002150310941095109232F342F452FA1
:1003200055272093C5000F900F900F900F90DF91ED
:10033000CF9108958091C0008823E4F78091C60092
:1003400008958093C6008091C00085FFFCCF08957A
:100350000F931F93CF93DF93082F192FD0E0C0E0A6
:10036000F801EC0FFD1F8081882321F00E94A1017C
:100370002196F6CFDF91CF911F910F910895FF92B3
:100380000F931F93CF93DF93482FF92E062F172F2C
:10039000C80102970F97E0F410927401C4E7D1E00E
:1003A000842F9F2DB8010E946007FC01E85EFE4F7C
:1003B00080818A93242F3F2D462FF72E2017310757
:1003C00078F7CE01DF91CF911F910F91FF900895A3
:1003D000D0E0C0E0F6CF482F592F30E020E002C037
:1003E0002F5F3F4F241735074CF490E080E08730B3
:1003F00063E09607ACF700000196F9CF08959BB132
:100400009F7B9BB988B98BB180688BB900008BB199
:100410008F778BB982E090E00E94EB01089581E034
:100420000E94FF010895813120F481580E94FF014C
:10043000089581550E94FF01089584E690E00E948E
:10044000EB0188E30E94FF0186E00E94FF018FE03C
:100450000E94FF0181E00E94FF018AE090E00E947B
:10046000EB0108959BB190649BB988B98BB180680A
:100470008BB900008BB18F778BB981E090E00E943F
:10048000EB0108950F931F93CF93DF93182FC62F7F
:10049000D72F0E940F028881882351F001E0010FBD
:1004A000812F0E94130289910E943202102FF3CFF4
:1004B000DF91CF911F910F910895CF93C82F8A306C
:1004C00051F09091C00095FFFCCFC093C60090E022
:1004D00080E0CF9108958DE00E945D02F2CF282F39
:1004E000392F2230310511F1C4F42115310571F194
:1004F00021303105C1F580919603882309F449C064
:1005000080917A01909199038917D8F48F5F809335
:100510007A0118B8822F932F07C02330310519F5BF
:1005200010927A0182E090E018B8089580919603C5
:10053000882369F110927A0180E090E02FEF28B9CA
:10054000089510927A0180E090E0F8CF80919603B0
:10055000882311F180917A0190919803891778F49A
:100560008F5F80937A012130310599F22230310575
:10057000B1F02115310541F0822F932F089510928B
:100580007A0121E030E0C5CF822F932FD7CF822F81
:10059000CBCF82E090E0C8CF82E090E0C5CF822F41
:1005A000932FC2CF8130910549F082309105F9F047
:1005B000009709F0089581E090E008952091960356
:1005C0002130C1F70E941A0662E08AE291E00E949F
:1005D000E5066AE080E00E94F70661E081E391E0D1
:1005E0000E94E5060E94FC0682E090E008952091BA
:1005F00096032111DFCF0E941A0661E086E491E0A4
:100600000E94E5066AE080E00E94F70662E082E56B
:1006100091E00E94E5060E94FC0681E090E0CACFCE
:10062000442349F021E030E002C0220F331F6A95D5
:10063000E2F7822B089521E030E002C0220F331F41
:100640006A95E2F720958223089521E030E002C008
:10065000220F331F6A95E2F78223089540E064E099
:100660008FEF0E94100382B9000080B160E0809596
:100670000E94250381117FC080B161E080950E94B6
:10068000250381117AC080B162E080950E94250324
:10069000811175C080B163E080950E9425038111AE
:1006A00070C040E065E08FEF0E94100382B9000047
:1006B00080B160E080950E942503811164C080B103
:1006C00061E080950E94250381115FC080B162E0E6
:1006D00080950E94250381115AC080B163E0809506
:1006E0000E942503811155C040E066E08FEF0E9413
:1006F000100382B9000080B160E080950E9425035C
:10070000811149C080B161E080950E94250381116B
:1007100044C080B162E080950E94250381113FC0F2
:1007200080B163E080950E94250381113AC040E0CA
:1007300067E08FEF0E94100382B9000080B160E093
:1007400080950E94250381112EC080B161E08095C3
:100750000E942503811129C080B162E080950E942A
:100760002503811124C080B163E080950E94250398
:1007700081111FC0089581E3089584E3089587E3FC
:1007800008958AE2089582E3089585E3089588E351
:10079000089580E3089583E3089586E3089589E347
:1007A000089583E2089581E4089582E4089583E43E
:1007B000089584E4DFCFE1ECF0E0808188618083FC
:1007C000E2ECF0E080818660808383E38093C40064
:1007D0001092C50008958091C0008078089580919E
:1007E000C00088231CF48091C600F9CF0895CF93F0
:1007F0000E94EB03C82F811103C08C2FCF91089565
:10080000C091C6000E94EF03F8CFCF93DF93C82FAB
:10081000D92F0E94F70380939703C130D105C1F00F
:10082000C230D10501F1209769F02097C1F0C130A5
:10083000D10521F48033D1F010929603CE01DF91DF
:10084000CF910895C1E0823309F0C0E0D0E0EDCF50
:10085000C1E0813311F0D0E0E8CFC0E0FCCF81E00F
:1008600080939603EBCFC1E0D0E0E4CF61E08BE56D
:1008700091E00E94E5066AE080E00E94F706809120
:10088000970361E090E00E94E5060E94FC06D4CF49
:100890008BE0809381008DE790E0909389008093B6
:1008A000880082E080936F0010928500109284008F
:1008B0008091000190910101A0910201B09103018A
:1008C0008093750190937601A0937701B09378019E
:1008D0008FB780688FBF089510928100089581E0DE
:1008E0008093790108951F920F920FB60F921124F1
:1008F0000BB60F922F933F934F935F936F937F931A
:100900008F939F93AF93BF93EF93FF938091750164
:1009100090917601A0917701B09178010197A1099A
:10092000B1098093750190937601A0937701B093FC
:100930007801892B8A2B8B2B99F0FF91EF91BF9136
:10094000AF919F918F917F916F915F914F913F9167
:100950002F910F900BBE0F900FBE0F901F90189508
:100960000E946F048091000190910101A091020109
:10097000B09103018093750190937601A093770164
:10098000B0937801DACF60930001709301018093F6
:100990000201909303016093750170937601809337
:1009A000770190937801089500D000D000D0CDB7A2
:1009B000DEB78FEF87B918B884B982E080939803C7
:1009C00011E010939903109297030E94DB0378942F
:1009D0000E94C2050E941A0661E086E491E00E942E
:1009E000E5066AE080E00E94F70662E082E591E0B9
:1009F0000E94E5060E94FC0686E0E2E1F1E0DE01ED
:100A0000119601900D928A95E1F7E1E9F1E01083EA
:100A100084E690E0A0E0B0E081839283A383B48376
:100A200085839683A783B08725E034E032872187CA
:100A3000E6E8F1E023E0208381839283A383B483FB
:100A400085839683A783B0872FE632E0328721879C
:100A5000EBE7F1E0108281839283A383B4838583E3
:100A60009683A783B08782ED92E09287818764E6C0
:100A700070E080E090E00E94C3040E94480448C0F7
:100A8000F80185819681A781B0858C599F4FAF4F22
:100A9000BF4F85839683A783B087FFEFEF1AFF0AC6
:100AA00083E0E816F10470F5F701EE0FFF1F81E017
:100AB00090E08C0F9D1FE80FF91F00811181D80174
:100AC00015964D915D916D917C91189711968D9130
:100AD0009D910D90BC91A02D481759076A077B077F
:100AE00079F6D8011996ED91FC911A978C91082E00
:100AF000000C990B0995F8018083158216821782E4
:100B00001086BECF809179018823E1F3109279019C
:100B1000F12CE12CC5CF95B19D7F95B9662329F0C5
:100B200095B1986095B990E00EC095B1977F95B951
:100B3000FACF25B12F7E25B925B1206225B925B17F
:100B40002F7D25B99F5F983088F447E050E0491B1E
:100B50005109282F30E002C0359527954A95E2F7D4
:100B600020FFE7CF25B1206125B9E6CF85B18260AE
:100B700085B9089560E00E948B05089561E00E94A8
:100B80008B050895CF93DF9384B1826084B984B1DB
:100B9000846084B984B1886084B984B1806184B987
:100BA00084B1806284B985B1846085B985B1826081
:100BB00085B983EC99E00197F1F700C0000085B199
:100BC0008B7F85B98BE594E40197F1F700C00000B5
:100BD00085B1846085B985B18D7F85B981E20E9438
:100BE000BA0583E10E94BA0586E00E94BA0582EC4C
:100BF0000E94BA0580E20E94BA0589E00E94BA0507
:100C000080E80E94BA0580E40E94BA05D0E0C0E006
:100C1000C83F91E0D90728F480E00E94BE052196E4
:100C2000F7CF88E00E94BA058CE00E94BA05DF91F8
:100C3000CF91089580E80E94BA0580E40E94BA0529
:100C4000109294031092950390E080E0883F21E099
:100C5000920730F4FC01E456FE4F10820196F6CF65
:100C60000895882321F080E20E94BA05089584E265
:100C7000FBCF262F26952695269590E034E5239FD9
:100C8000800D911D1124442379F0677021E030E03C
:100C900002C0220F331F6A95E2F7FC01E456FE4FB3
:100CA0008081822B80830895677021E030E002C04C
:100CB000220F331F6A95E2F7FC01E456FE4F2095A0
:100CC0008081282320830895EF92FF920F931F9332
:100CD000CF93DF93E82EF62E00E041C0609195039C
:100CE00080919403610F40E0800F0E9439061F5FDE
:100CF000CE01880F991F880F991F880F991F8C1B91
:100D00009D0B1817190654F5EE2D0E2C000CFF0B39
:100D1000B097802F6F2D0E9454079F01220F331F21
:100D2000220F331FE20FF31FE80FF11DE457FF4FAF
:100D3000E491F0E0812F0E94540702C0F595E795F9
:100D40008A95E2F7E0FFCACF609195038091940302
:100D5000610F41E0800F0E943906C9CF0F5FCF2D90
:100D6000D0E0CE01880F991F880F991F8C0F9D1F0F
:100D70000817190614F410E0BBCFE4E9F3E08F2D57
:100D8000880F880F8F0D9081890F8F5F8083843546
:100D900068F010929403E5E9F3E08F2D880F880F37
:100DA000880F8F199081890F8F5F808380919503C1
:100DB000803320F01092940310929503DF91CF912D
:100DC0001F910F91FF90EF9008951F93CF93DF93A2
:100DD000C82FD92F162F8881882329F02196612FBB
:100DE0000E946406F8CFDF91CF911F910895809300
:100DF0009403609395030895CF93DF9380E80E9456
:100E0000BA0580E40E94BA05D0E0C0E0C83F81E0A6
:100E1000D80740F4FE01E456FE4F80810E94BE05D3
:100E20002196F4CFDF91CF9108951092C50087E607
:100E30008093C400E0ECF0E080818D7F8083089592
:100E40000E94150788E18093C10008959091C00029
:100E500095FFFCCF8093C6000895CF93DF93C82FF2
:100E6000D92F8881882321F021960E942607F9CF67
:100E7000DF91CF910895CF93DF93C82FD92FCE0163
:100E8000FE012491222331F02196FC0184910E94DD
:100E90002607F5CFDF91CF9108958091C000882378
:100EA000E4F78091C6000895991B79E004C0991F6A
:100EB000961708F0961B881F7A95C9F780950895B4
:100EC000AA1BBB1B51E107C0AA1FBB1FA617B70770
:100ED00010F0A61BB70B881F991F5A95A9F780958C
:100EE0009095BC01CD010895A1E21A2EAA1BBB1B4F
:100EF000FD010DC0AA1FBB1FEE1FFF1FA217B307E6
:100F0000E407F50720F0A21BB30BE40BF50B661FFB
:100F1000771F881F991F1A9469F7609570958095BF
:100F200090959B01AC01BD01CF010895F894FFCFCE
:100F30000100000000000002000000005D0200004F
:100F40000000910186017B01303132333435363770
:100F50003839306162636465660052455455524EBB
:100F600000594F5552204F52444552204953205268
:100F700045414459210044616E732050697A7A6971
:100F800061004F7264657220233100657175616C78
:040F9000203000000D
:00000001FF
