:100000000C9436010C9455010C9455010C94550137
:100010000C9455010C9455010C9455010C94550108
:100020000C9455010C9455010C9455010C945501F8
:100030000C9455010C949F040C9455010C9455019B
:100040000C9455010C9455010C9455010C945501D8
:100050000C9455010C9455010C9455010C945501C8
:100060000C9455010C9455010C9455010C945501B8
:100070000C9455010C9455010C9455010C945501A8
:100080000C9455010C9455010C945501000000008E
:100090000000005F00000007000700147F147F14B9
:1000A000242A7F2A122313086462364955225000FD
:1000B00005030000001C2241000041221C0014081E
:1000C0003E081408083E08080050300000080808E0
:1000D0000808006060000020100804023E514945F5
:1000E0003E00427F400042615149462141454B312B
:1000F0001814127F1027454545393C4A49493001BB
:10010000710905033649494936064949291E003611
:100110003600000056360000081422410014141462
:100120001414004122140802015109063249794190
:100130003E7E1111117E7F494949363E414141229F
:100140007F4141221C7F494949417F090909013EFC
:100150004149497A7F0808087F00417F41002040DB
:10016000413F017F081422417F404040407F020C04
:10017000027F7F0408107F3E4141413E7F0909090B
:10018000063E4151215E7F091929464649494931B8
:1001900001017F01013F4040403F1F2040201F3FA1
:1001A0004038403F63140814630708700807615122
:1001B000494543007F4141000204081020004141AD
:1001C0007F0004020102044040404040000102045C
:1001D0000020545454787F484444383844444420E0
:1001E000384444487F3854545418087E0901020C9E
:1001F0005252523E7F0804047800447D4000204063
:10020000443D007F1028440000417F40007C0418DA
:1002100004787C0804047838444444387C1414146A
:1002200008081414187C7C0804040848545454200A
:10023000043F4440203C4040207C1C2040201C3C8B
:100240004030403C44281028440C5050503C4464FA
:10025000544C44000836410000007F000000413645
:1002600008001008081008000000000011241FBE3C
:10027000CFEFD0E4DEBFCDBF11E0A0E0B1E0E2E817
:10028000FFE000E00BBF02C007900D92A038B1075D
:10029000D9F723E0A0E8B1E001C01D92A63BB20768
:1002A000E1F70E9400050C94BF070C940000CF9367
:1002B000DF9300D000D0CDB7DEB769837A838B831C
:1002C0009C83E1ECF0E0808188618083E2ECF0E0E7
:1002D00080818664808329813A814B815C81220FF1
:1002E000331F441F551F220F331F441F551F220F5A
:1002F000331F441F551F220F331F441F551F60E03B
:1003000072E18AE790E00E949D078FEF820F809351
:10031000C4002150310941095109232F342F452FA1
:1003200055272093C5000F900F900F900F90DF91ED
:10033000CF9108958091C0008823E4F78091C60092
:1003400008958093C6008091C00085FFFCCF08957A
:100350000F931F93CF93DF93082F192FD0E0C0E0A6
:10036000F801EC0FFD1F8081882321F00E94A1017C
:100370002196F6CFDF91CF911F910F910895FF92B3
:100380000F931F93CF93DF93482FF92E062F172F2C
:10039000C80102970F97E0F410929001C0E9D1E0F4
:1003A000842F9F2DB8010E948907FC01E85EFE4F53
:1003B00080818A93242F3F2D462FF72E2017310757
:1003C00078F7CE01DF91CF911F910F91FF900895A3
:1003D000D0E0C0E0F6CF482F592F30E020E002C037
:1003E0002F5F3F4F241735074CF490E080E08730B3
:1003F00063E09607ACF700000196F9CF08959BB132
:100400009F7B9BB988B98BB180688BB900008BB199
:100410008F778BB982E090E00E94EB01089581E034
:100420000E94FF010895813120F481580E94FF014C
:10043000089581550E94FF01089584E690E00E948E
:10044000EB0188E30E94FF0186E00E94FF018FE03C
:100450000E94FF0181E00E94FF018AE090E00E947B
:10046000EB0108959BB190649BB988B98BB180680A
:100470008BB900008BB18F778BB981E090E00E943F
:10048000EB0108950F931F93CF93DF93182FC62F7F
:10049000D72F0E940F028881882351F001E0010FBD
:1004A000812F0E94130289910E943202102FF3CFF4
:1004B000DF91CF911F910F910895CF93C82F8A306C
:1004C00051F09091C00095FFFCCFC093C60090E022
:1004D00080E0CF9108958DE00E945D02F2CF282F39
:1004E000392F2230310509F1C4F42115310569F1A4
:1004F00021303105B9F58091B203882309F445C054
:10050000809196019091B5038917D0F48F5F809305
:10051000960118B8822F932F08952330310511F5D5
:100520001092960182E090E008958091B2038823B2
:1005300051F11092960180E090E02FEF28B90895D4
:100540001092960180E090E0F8CF8091B20388236A
:10055000F9F0809196019091B403891760F48F5F50
:10056000809396012115310559F02130310589F22A
:10057000822F932F08951092960121E030E0C9CF89
:10058000822F932FDACF822F089582E090E0089592
:1005900082E090E008958130910549F08230910524
:1005A000F9F0009709F0089581E090E00895209116
:1005B000B2032130C1F70E94430662E08AE291E073
:1005C0000E940E076AE080E00E94200761E081E35C
:1005D00091E00E940E070E94250782E090E00895B6
:1005E0002091B2032111DFCF0E94430661E086E42F
:1005F00091E00E940E076AE080E00E94200762E01E
:1006000082E591E00E940E070E94250781E090E0BC
:10061000CACF442349F021E030E002C0220F331F4B
:100620006A95E2F7822B089521E030E002C0220FA4
:10063000331F6A95E2F720958223089521E030E088
:1006400002C0220F331F6A95E2F78223089540E02B
:1006500064E08FEF0E94090382B9000080B160E07E
:1006600080950E941E0381117FC080B161E080955A
:100670000E941E0381117AC080B162E080950E94C1
:100680001E03811175C080B163E080950E941E0336
:10069000811170C040E065E08FEF0E94090382B9CC
:1006A000000080B160E080950E941E03811164C04B
:1006B00080B161E080950E941E0381115FC080B10E
:1006C00062E080950E941E0381115AC080B163E0F0
:1006D00080950E941E03811155C040E066E08FEFB7
:1006E0000E94090382B9000080B160E080950E94F9
:1006F0001E03811149C080B161E080950E941E03F4
:10070000811144C080B162E080950E941E03811176
:100710003FC080B163E080950E941E0381113AC002
:1007200040E067E08FEF0E94090382B9000080B1CA
:1007300060E080950E941E0381112EC080B161E0AF
:1007400080950E941E03811129C080B162E08095CE
:100750000E941E03811124C080B163E080950E9435
:100760001E0381111FC0089581E3089584E3089555
:1007700087E308958AE2089582E3089585E3089562
:1007800088E3089580E3089583E3089586E3089558
:1007900089E3089583E2089581E4089582E4089549
:1007A00083E4089584E4DFCFE1ECF0E080818861A8
:1007B0008083E2ECF0E080818660808383E3809335
:1007C000C4001092C50008958091C0008823E4F70A
:1007D0008091C6000895CF93DF93C82FD92F0E9430
:1007E000E4038093B3030E94430661E08BE591E04C
:1007F0000E940E076AE080E00E9420078091B30308
:1008000061E090E00E940E070E942507C130D105EB
:1008100029F1C230D10579F12097C1F0209739F143
:10082000C130D10579F48091B303813638F18091DC
:10083000B3038236A8F58091B303803309F442C034
:100840001092B203CE01DF91CF910895C1E0809163
:10085000B303823309F0C0E0D0E0E0CFC1E0809183
:10086000B303813611F0D0E0D9CFC0E0FCCF81E0F6
:100870008093B203E7CFC1E0D0E0D5CF61E080E65E
:1008800091E00E940E076AE080E00E9420078091BC
:10089000B30361E090E00E940E070E942507C7CFD6
:1008A00061E087E691E00E940E076AE080E00E9426
:1008B00020078091B30361E090E00E940E070E9440
:1008C0002507B9CF61E081E791E00E940E076AE059
:1008D00080E00E9420078091B30361E090E00E94D5
:1008E0000E070E942507ACCF8BE0809381008DE737
:1008F00090E0909389008093880082E080936F005D
:100900001092850010928400809100019091010165
:10091000A0910201B0910301809391019093920103
:10092000A0939301B09394018FB780688FBF08950F
:1009300010928100089581E08093950108951F929F
:100940000F920FB60F9211240BB60F922F933F9375
:100950004F935F936F937F938F939F93AF93BF93C7
:10096000EF93FF938091910190919201A091930157
:10097000B09194010197A109B109809391019093DD
:100980009201A0939301B0939401892B8A2B8B2B16
:1009900099F0FF91EF91BF91AF919F918F917F91CE
:1009A0006F915F914F913F912F910F900BBE0F90E0
:1009B0000FBE0F901F9018950E949B04809100011C
:1009C00090910101A0910201B091030180939101E6
:1009D00090939201A0939301B0939401DACF609326
:1009E00000017093010180930201909303016093D1
:1009F00091017093920180939301909394010895D3
:100A000000D000D000D0CDB7DEB78FEF87B918B8CF
:100A100084B912E01093B40381E08093B5030E947F
:100A2000D4030E94EB050E94430661E089E791E050
:100A30000E940E070E94250786E0E2E1F1E0DE0158
:100A4000119601900D928A95E1F7EDEAF1E010839D
:100A500084E690E0A0E0B0E081839283A383B48336
:100A600085839683A783B0872BEE33E03287218777
:100A7000E2EAF1E023E0208381839283A383B483BD
:100A800085839683A783B0872FE632E0328721875C
:100A9000E7E9F1E0108281839283A383B4838583A5
:100AA0009683A783B0878BEC92E09287818764E678
:100AB00070E080E090E00E94EF040E9474040E94C5
:100AC000430661E08CE791E00E940E070E94250733
:100AD00048C0F80185819681A781B0858C599F4FC8
:100AE000AF4FBF4F85839683A783B087FFEFEF1A81
:100AF000FF0A83E0E816F10470F5F701EE0FFF1F1F
:100B000081E090E08C0F9D1FE80FF91F008111819B
:100B1000D80115964D915D916D917C911897119624
:100B20008D919D910D90BC91A02D481759076A0792
:100B30007B0779F6D8011996ED91FC911A978C9163
:100B4000082E000C990B0995F801808315821682F6
:100B500017821086BECF809195018823E1F3109211
:100B60009501F12CE12CC5CF95B19D7F95B96623F8
:100B700029F095B1986095B990E00EC095B1977F36
:100B800095B9FACF25B12F7E25B925B1206225B9B7
:100B900025B12F7D25B99F5F983088F447E050E05C
:100BA000491B5109282F30E002C0359527954A95F9
:100BB000E2F720FFE7CF25B1206125B9E6CF85B167
:100BC000826085B9089560E00E94B405089561E0EF
:100BD0000E94B4050895CF93DF9384B1826084B9F5
:100BE00084B1846084B984B1886084B984B180613F
:100BF00084B984B1806284B985B1846085B985B1D6
:100C0000826085B983EC99E00197F1F700C000009C
:100C100085B18B7F85B98BE594E40197F1F700C02E
:100C2000000085B1846085B985B18D7F85B981E289
:100C30000E94E30583E10E94E30586E00E94E3054C
:100C400082EC0E94E30580E20E94E30589E00E94B5
:100C5000E30580E80E94E30580E40E94E305D0E01C
:100C6000C0E0C83F91E0D90728F480E00E94E70582
:100C70002196F7CF88E00E94E3058CE00E94E3050F
:100C8000DF91CF91089580E80E94E30580E40E94FF
:100C9000E3051092B0031092B10390E080E0883F2A
:100CA00021E0920730F4FC01E854FE4F10820196D7
:100CB000F6CF0895882321F080E20E94E30508958D
:100CC00084E2FBCF262F26952695269590E034E5E5
:100CD000239F800D911D1124442379F0677021E03A
:100CE00030E002C0220F331F6A95E2F7FC01E8549E
:100CF000FE4F8081822B80830895677021E030E071
:100D000002C0220F331F6A95E2F7FC01E854FE4F40
:100D100020958081282320830895EF92FF920F93DE
:100D20001F93CF93DF93E82EF62E00E041C0609131
:100D3000B1038091B003610F40E0800F0E94620612
:100D40001F5FCE01880F991F880F991F880F991F69
:100D50008C1B9D0B1817190654F5EE2D0E2C000C4C
:100D6000FF0BB097802F6F2D0E947D079F01220FF0
:100D7000331F220F331FE20FF31FE80FF11DE4575B
:100D8000FF4FE491F0E0812F0E947D0702C0F595AE
:100D9000E7958A95E2F7E0FFCACF6091B1038091B1
:100DA000B003610F41E0800F0E946206C9CF0F5F60
:100DB000CF2DD0E0CE01880F991F880F991F8C0F7F
:100DC0009D1F0817190614F410E0BBCFE0EBF3E009
:100DD0008F2D880F880F8F0D9081890F8F5F8083F3
:100DE000843568F01092B003E1EBF3E08F2D880FAB
:100DF000880F880F8F199081890F8F5F8083809172
:100E0000B103803320F01092B0031092B103DF9150
:100E1000CF911F910F91FF90EF9008951F93CF9363
:100E2000DF93C82FD92F162F8881882329F0219688
:100E3000612F0E948D06F8CFDF91CF911F91089509
:100E40008093B0036093B1030895CF93DF9380E85C
:100E50000E94E30580E40E94E305D0E0C0E0C83FC3
:100E600081E0D80740F4FE01E854FE4F80810E94E3
:100E7000E7052196F4CFDF91CF9108951092C50038
:100E800087E68093C400E0ECF0E080818D7F808372
:100E900008950E943E0788E18093C10008959091D3
:100EA000C00095FFFCCF8093C6000895CF93DF93D9
:100EB000C82FD92F8881882321F021960E944F07BF
:100EC000F9CFDF91CF910895CF93DF93C82FD92F1A
:100ED000CE01FE012491222331F02196FC01849160
:100EE0000E944F07F5CFDF91CF9108958091C00008
:100EF0008823E4F78091C6000895991B79E004C027
:100F0000991F961708F0961B881F7A95C9F7809548
:100F10000895AA1BBB1B51E107C0AA1FBB1FA61740
:100F2000B70710F0A61BB70B881F991F5A95A9F792
:100F300080959095BC01CD010895A1E21A2EAA1BBF
:100F4000BB1BFD010DC0AA1FBB1FEE1FFF1FA21779
:100F5000B307E407F50720F0A21BB30BE40BF50B76
:100F6000661F771F881F991F1A9469F760957095FF
:100F7000809590959B01AC01BD01CF010895F89437
:020F8000FFCFA1
:100F82000100000000000002000000005D020000FD
:100F92000000AD01A20197013031323334353637CA
:100FA2003839306162636465660052455455524E69
:100FB20000594F5552204F52444552204953205216
:100FC20045414459210044616E732050697A7A691F
:100FD20061004F7264657220233100426C756500B6
:100FE2006C657373203100677265617465722031BC
:100FF20000657175616C2030004F4E004F4E32001B
:00000001FF
