:100000000C9446000C9465000C9465000C946500FB
:100010000C9465000C9465000C9465000C946500CC
:100020000C9465000C9465000C9465000C946500BC
:100030000C9465000C9416030C9465000C946500F8
:100040000C9465000C9465000C9465000C9465009C
:100050000C9465000C9465000C9465000C9465008C
:100060000C9465000C9465000C9465000C9465007C
:100070000C9465000C9465000C9465000C9465006C
:100080000C9465000C9465000C94650011241FBE4F
:10009000CFEFD0E4DEBFCDBF11E0A0E0B1E0EAE6F3
:1000A000F9E000E00BBF02C007900D92AA32B10741
:1000B000D9F721E0AAE2B1E001C01D92A836B2074B
:1000C000E1F70E9477030C94B3040C940000CF93E3
:1000D000DF9300D000D0CDB7DEB769837A838B83FE
:1000E0009C83E1ECF0E0808188618083E2ECF0E0C9
:1000F00080818664808329813A814B815C81220FD3
:10010000331F441F551F220F331F441F551F220F3B
:10011000331F441F551F220F331F441F551F60E01C
:1001200072E18AE790E00E9491048FEF820F809342
:10013000C4002150310941095109232F342F452F83
:1001400055272093C5000F900F900F900F90DF91CF
:10015000CF9108958091C0008823E4F78091C60074
:1001600008958093C6008091C00085FFFCCF08955C
:100170000F931F93CF93DF93082F192FD0E0C0E088
:10018000F801EC0FFD1F8081882321F00E94B1004F
:100190002196F6CFDF91CF911F910F910895FF9295
:1001A0000F931F93CF93DF93482FF92E062F172F0E
:1001B000C80102970F97E0F410923A01CAE3D1E028
:1001C000842F9F2DB8010E947D04FC01E85EFE4F44
:1001D00080818A93242F3F2D462FF72E2017310739
:1001E00078F7CE01DF91CF911F910F91FF90089585
:1001F000D0E0C0E0F6CF482F592F30E020E002C019
:100200002F5F3F4F241735074CF490E080E0873094
:1002100063E09607ACF700000196F9CF08959BB113
:100220009F7B9BB988B98BB180688BB900008BB17B
:100230008F778BB982E090E00E94FB00089581E007
:100240000E940F010895813120F481580E940F010E
:10025000089581550E940F01089584E690E00E9460
:10026000FB0088E30E940F0186E00E940F018FE0EF
:100270000E940F0181E00E940F018AE090E00E943D
:10028000FB0008959BB190649BB988B98BB18068DD
:100290008BB900008BB18F778BB981E090E00E9421
:1002A000FB0008950F931F93CF93DF93182FC62F52
:1002B000D72F0E941F018881882351F001E0010F90
:1002C000812F0E94230189910E944201102FF3CFB8
:1002D000DF91CF911F910F910895CF93C82F8A304E
:1002E00051F09091C00095FFFCCFC093C60090E004
:1002F00080E0CF9108958DE00E946D01F2CFAC01B6
:1003000090B181E09827917020B120952270452B03
:1003100089F4992341F0222331F08AE08093660129
:100320001092670107C0911108C0109266018AE01F
:100330008093670190E080E008952111FBCF85E074
:100340008093660180936701F5CF282F392F2115FF
:10035000310551F02130310501F12115310599F0B8
:1003600021303105B9F008958091400190916601E6
:10037000891760F490916201992341F08F5F809317
:100380004001822F932F23E028B908951092400155
:1003900081E090E022E028B9089580914001909199
:1003A0006701891730F48F5F80934001822F932F6C
:1003B000F1CF981748F440916201411105C01092A5
:1003C0004001822F932FE6CF981748F48091620165
:1003D000882341F01092400180E090E0D4CF80E08B
:1003E00090E0D1CF80E090E0CECFCF93DF93C82FC5
:1003F000D92F0E94AA0080936301209761F0C13039
:10040000D10579F02097A1F0C130D105A1F0CE013E
:10041000DF91CF910895C1E0813309F0C0E0D0E0D1
:10042000F1CFC1E0813311F0D0E0ECCFC0E0FCCFE0
:1004300010926201ECCF81E080936201E8CF442307
:1004400049F021E030E002C0220F331F6A95E2F745
:10045000822B089521E030E002C0220F331F6A95FD
:10046000E2F720958223089521E030E002C0220FB8
:10047000331F6A95E2F78223089540E064E08FEF2E
:100480000E941F0282B9000080B160E080950E9446
:10049000340281117FC080B161E080950E943402F6
:1004A00081117AC080B162E080950E94340281118E
:1004B00075C080B163E080950E943402811170C0E4
:1004C00040E065E08FEF0E941F0282B9000080B11A
:1004D00060E080950E943402811164C080B161E0C7
:1004E00080950E94340281115FC080B162E08095E6
:1004F0000E94340281115AC080B163E080950E944D
:100500003402811155C040E066E08FEF0E941F0267
:1005100082B9000080B160E080950E9434028111B0
:1005200049C080B161E080950E943402811144C0CD
:1005300080B162E080950E94340281113FC080B199
:1005400063E080950E94340281113AC040E067E088
:100550008FEF0E941F0282B9000080B160E0809599
:100560000E94340281112EC080B161E080950E940A
:100570003402811129C080B162E080950E9434026A
:10058000811124C080B163E080950E943402811102
:100590001FC0089581E3089584E3089587E30895D3
:1005A0008AE2089582E3089585E3089588E3089533
:1005B00080E3089583E3089586E3089589E3089529
:1005C00083E2089581E4089582E4089583E4089520
:1005D00084E4DFCF08958BE0809381008DE790E085
:1005E000909389008093880082E080936F0010923E
:1005F0008500109284008091000190910101A091EA
:100600000201B091030180933B0190933C01A093C0
:100610003D01B0933E018FB780688FBF089510925F
:100620008100089581E080933F0108951F920F9209
:100630000FB60F9211240BB60F922F933F934F9347
:100640005F936F937F938F939F93AF93BF93EF933A
:10065000FF9380913B0190913C01A0913D01B091AD
:100660003E010197A109B10980933B0190933C01A0
:10067000A0933D01B0933E01892B8A2B8B2B99F0DF
:10068000FF91EF91BF91AF919F918F917F916F916A
:100690005F914F913F912F910F900BBE0F900FBE26
:1006A0000F901F9018950E94120380910001909165
:1006B0000101A0910201B091030180933B0190934D
:1006C0003C01A0933D01B0933E01DACF609300015D
:1006D00070930101809302019093030160933B01A9
:1006E00070933C0180933D0190933E01089500D0AA
:1006F00000D000D0CDB7DEB78FEF87B918B811B8EA
:1007000084B9109266018AE08093670160E875E21F
:1007100080E090E00E94670082E088B986E0E2E134
:10072000F1E0DE01119601900D928A95E1F7E7E57F
:10073000F1E0108284E690E0A0E0B0E08183928353
:10074000A383B48385839683A783B0872FE731E0A3
:1007500032872187ECE4F1E021E0208381839283DA
:10076000A383B48385839683A783B08745EF51E045
:1007700052874187E1E4F1E0208381839283A38360
:10078000B48385839683A783B08785EA91E09287B7
:10079000818764E670E080E090E00E9466030E943A
:1007A000EB0248C0F80185819681A781B0858C59FC
:1007B0009F4FAF4FBF4F85839683A783B087FFEFCF
:1007C000EF1AFF0A83E0E816F10470F5F701EE0F67
:1007D000FF1F81E090E08C0F9D1FE80FF91F008143
:1007E0001181D80115964D915D916D917C9118976D
:1007F00011968D919D910D90BC91A02D4817590790
:100800006A077B0779F6D8011996ED91FC911A9742
:100810008C91082E000C990B0995F80180831582A4
:10082000168217821086BECF80913F018823E1F3A4
:1008300010923F01F12CE12CC5CF81E08093C500DF
:1008400080EA8093C400E0ECF0E080818D7F8083BB
:1008500008951092C50087E68093C400E0ECF0E0B4
:1008600080818D7F808308951092C50089E18093F7
:10087000C400E0ECF0E080818D7F808308958230B9
:1008800029F0833049F00E94290402C00E941D040F
:1008900088E18093C10008950E943404F9CF9091BB
:1008A000C00095FFFCCF8093C6000895CF93DF93DF
:1008B000C82FD92F8881882321F021960E944F04C8
:1008C000F9CFDF91CF910895CF93DF93C82FD92F20
:1008D000CE01FE012491222331F02196FC01849166
:1008E0000E944F04F5CFDF91CF9108958091C00011
:1008F0008823E4F78091C6000895AA1BBB1B51E131
:1009000007C0AA1FBB1FA617B70710F0A61BB70B7F
:10091000881F991F5A95A9F780959095BC01CD0124
:100920000895A1E21A2EAA1BBB1BFD010DC0AA1F30
:10093000BB1FEE1FFF1FA217B307E407F50720F048
:10094000A21BB30BE40BF50B661F771F881F991FC3
:100950001A9469F760957095809590959B01AC010C
:0A096000BD01CF010895F894FFCF08
:10096A000100000000000002000000006D0100000C
:10097A00000057014C0141013031323334353637EA
:0A098A00383930616263646566006D
:00000001FF
