:100000000C9436010C9455010C9455010C94550137
:100010000C9455010C9455010C9455010C94550108
:100020000C9455010C9455010C9455010C945501F8
:100030000C9455010C942D040C9455010C9455010D
:100040000C9455010C9455010C9455010C945501D8
:100050000C9455010C9455010C9455010C945501C8
:100060000C9455010C9455010C9455010C945501B8
:100070000C9455010C9455010C9455010C945501A8
:100080000C9455010C9455010C945501000000008E
:100090000000005F00000007000700147F147F14B9
:1000A000242A7F2A122313086462364955225000FD
:1000B00005030000001C2241000041221C0014081E
:1000C0003E081408083E08080050300000080808E0
:1000D0000808006060000020100804023E514945F5
:1000E0003E00427F400042615149462141454B312B
:1000F0001814127F1027454545393C4A49493001BB
:10010000710905033649494936064949291E003611
:100110003600000056360000081422410014141462
:100120001414004122140802015109063249794190
:100130003E7E1111117E7F494949363E414141229F
:100140007F4141221C7F494949417F090909013EFC
:100150004149497A7F0808087F00417F41002040DB
:10016000413F017F081422417F404040407F020C04
:10017000027F7F0408107F3E4141413E7F0909090B
:10018000063E4151215E7F091929464649494931B8
:1001900001017F01013F4040403F1F2040201F3FA1
:1001A0004038403F63140814630708700807615122
:1001B000494543007F4141000204081020004141AD
:1001C0007F0004020102044040404040000102045C
:1001D0000020545454787F484444383844444420E0
:1001E000384444487F3854545418087E0901020C9E
:1001F0005252523E7F0804047800447D4000204063
:10020000443D007F1028440000417F40007C0418DA
:1002100004787C0804047838444444387C1414146A
:1002200008081414187C7C0804040848545454200A
:10023000043F4440203C4040207C1C2040201C3C8B
:100240004030403C44281028440C5050503C4464FA
:10025000544C44000836410000007F000000413645
:1002600008001008081008000000000011241FBE3C
:10027000CFEFD0E4DEBFCDBF11E0A0E0B1E0EEEE05
:10028000FEE000E00BBF02C007900D92AC35B10755
:10029000D9F723E0ACE5B1E001C01D92A239B20765
:1002A000E1F70E948E040C9475070C940000CF9324
:1002B000DF9300D000D0CDB7DEB769837A838B831C
:1002C0009C83E1ECF0E0808188618083E2ECF0E0E7
:1002D00080818664808329813A814B815C81220FF1
:1002E000331F441F551F220F331F441F551F220F5A
:1002F000331F441F551F220F331F441F551F60E03B
:1003000072E18AE790E00E9453078FEF820F80939B
:10031000C4002150310941095109232F342F452FA1
:1003200055272093C5000F900F900F900F90DF91ED
:10033000CF9108958091C0008823E4F78091C60092
:1003400008958093C6008091C00085FFFCCF08957A
:100350000F931F93CF93DF93082F192FD0E0C0E0A6
:10036000F801EC0FFD1F8081882321F00E94A1017C
:100370002196F6CFDF91CF911F910F910895FF92B3
:100380000F931F93CF93DF93482FF92E062F172F2C
:10039000C80102970F97E0F410926C01CCE6D1E00F
:1003A000842F9F2DB8010E943F07FC01E85EFE4F9D
:1003B00080818A93242F3F2D462FF72E2017310757
:1003C00078F7CE01DF91CF911F910F91FF900895A3
:1003D000D0E0C0E0F6CF482F592F30E020E002C037
:1003E0002F5F3F4F241735074CF490E080E08730B3
:1003F00063E09607ACF700000196F9CF08959BB132
:100400009F7B9BB988B98BB180688BB900008BB199
:100410008F778BB982E090E00E94EB01089581E034
:100420000E94FF010895813120F481580E94FF014C
:10043000089581550E94FF01089584E690E00E948E
:10044000EB0188E30E94FF0186E00E94FF018FE03C
:100450000E94FF0181E00E94FF018AE090E00E947B
:10046000EB0108959BB190649BB988B98BB180680A
:100470008BB900008BB18F778BB981E090E00E943F
:10048000EB0108950F931F93CF93DF93182FC62F7F
:10049000D72F0E940F028881882351F001E0010FBD
:1004A000812F0E94130289910E943202102FF3CFF4
:1004B000DF91CF911F910F910895CF93C82F8A306C
:1004C00051F09091C00095FFFCCFC093C60090E022
:1004D00080E0CF9108958DE00E945D02F2CF282F39
:1004E000392F21303105D1F02230310561F021154D
:1004F000310551F121153105D1F121303105D9F006
:10050000822F932F089580918E03882399F1109262
:10051000720180E090E02FEF28B9089580918E035A
:10052000882351F18091720190919103891738F4D9
:100530008F5F8093720118B8822F932F08951092C5
:10054000720180E090E0E7CF80918E038823B9F0BC
:100550008091720190919003891720F48F5F8093AE
:100560007201C8CF1092720121E030E0E4CF822FF7
:10057000932FD1CF822F089582E090E0089582E0FA
:1005800090E00895CF93DF93C82FD92F0E949A014E
:1005900080938F03209761F0C130D10579F02097C7
:1005A000A1F0C130D105A1F0CE01DF91CF91089526
:1005B000C1E0813309F0C0E0D0E0F1CFC1E0813388
:1005C00011F0D0E0ECCFC0E0FCCF10928E03ECCF66
:1005D00081E080938E03E8CFCF93DF93C82FD92F8C
:1005E0000E949A0180938F03209761F0C130D1055A
:1005F00081F02097B1F0C130D10531F1CE01DF910A
:10060000CF910895C1E080918E038111C0E0D0E0C8
:10061000F0CFC1E080918E03813009F0C0E0D0E0DE
:10062000E8CF0E94D80561E08AE291E00E94A3062B
:100630006AE080E00E94B50662E086E391E00E94F5
:10064000A3060E94BA06DACF0E94D80562E08FE3C3
:1006500091E00E94A3066AE080E00E94B50661E096
:1006600086E491E00E94A3060E94BA06C7CF442305
:1006700049F021E030E002C0220F331F6A95E2F713
:10068000822B089521E030E002C0220F331F6A95CB
:10069000E2F720958223089521E030E002C0220F86
:1006A000331F6A95E2F78223089540E064E08FEFFC
:1006B0000E94370382B9000080B160E080950E94FB
:1006C0004C0381117FC080B161E080950E944C0392
:1006D00081117AC080B162E080950E944C03811143
:1006E00075C080B163E080950E944C03811170C099
:1006F00040E065E08FEF0E94370382B9000080B1CF
:1007000060E080950E944C03811164C080B161E07B
:1007100080950E944C0381115FC080B162E080959A
:100720000E944C0381115AC080B163E080950E9401
:100730004C03811155C040E066E08FEF0E94370303
:1007400082B9000080B160E080950E944C03811165
:1007500049C080B161E080950E944C03811144C082
:1007600080B162E080950E944C0381113FC080B14E
:1007700063E080950E944C0381113AC040E067E03D
:100780008FEF0E94370382B9000080B160E080954E
:100790000E944C0381112EC080B161E080950E94BF
:1007A0004C03811129C080B162E080950E944C0306
:1007B000811124C080B163E080950E944C038111B7
:1007C0001FC0089581E3089584E3089587E30895A1
:1007D0008AE2089582E3089585E3089588E3089501
:1007E00080E3089583E3089586E3089589E30895F7
:1007F00083E2089581E4089582E4089583E40895EE
:1008000084E4DFCF8BE0809381008DE790E09093CC
:1008100089008093880082E080936F0010928500A9
:10082000109284008091000190910101A091020139
:10083000B091030180936D0190936E01A0936F01BD
:10084000B09370018FB780688FBF089510928100B8
:10085000089581E08093710108951F920F920FB661
:100860000F9211240BB60F922F933F934F935F93E8
:100870006F937F938F939F93AF93BF93EF93FF9368
:1008800080916D0190916E01A0916F01B091700106
:100890000197A109B10980936D0190936E01A09316
:1008A0006F01B0937001892B8A2B8B2B99F0FF91EC
:1008B000EF91BF91AF919F918F917F916F915F91D8
:1008C0004F913F912F910F900BBE0F900FBE0F9045
:1008D0001F9018950E9429048091000190910101B8
:1008E000A0910201B091030180936D0190936E017C
:1008F000A0936F01B0937001DACF60930001709301
:100900000101809302019093030160936D01709344
:100910006E0180936F0190937001089500D000D014
:1009200000D0CDB7DEB78FEF87B918B811B882B94C
:1009300084B982E08093900311E0109391031092A8
:10094000720160E875E280E090E00E9457010E9429
:1009500080050E94D80561E08AE291E00E94A3062A
:100960006AE080E00E94B50662E086E391E00E94C2
:10097000A3060E94BA0686E0E2E1F1E0DE011196EC
:1009800001900D928A95E1F7E9E8F1E0108384E6A1
:1009900090E0A0E0B0E081839283A383B483858359
:1009A0009683A783B08722EC32E032872187EEE777
:1009B000F1E0108381839283A383B483858396833C
:1009C000A783B0872FE632E032872187E3E7F1E0A3
:1009D000108281839283A383B48385839683A783C4
:1009E000B0878CEE92E09287818764E670E080E0C9
:1009F00090E00E947D040E94020448C0F8018581B5
:100A00009681A781B0858C599F4FAF4FBF4F85838B
:100A10009683A783B087FFEFEF1AFF0A83E0E816FB
:100A2000F10470F5F701EE0FFF1F81E090E08C0FED
:100A30009D1FE80FF91F00811181D80115964D9176
:100A40005D916D917C91189711968D919D910D906E
:100A5000BC91A02D481759076A077B0779F6D80182
:100A60001996ED91FC911A978C91082E000C990B18
:100A70000995F80180831582168217821086BECFF1
:100A8000809171018823E1F310927101F12CE12C26
:100A9000C5CF95B19D7F95B9662329F095B1986032
:100AA00095B990E00EC095B1977F95B9FACF25B171
:100AB0002F7E25B925B1206225B925B12F7D25B915
:100AC0009F5F983088F447E050E0491B5109282F78
:100AD00030E002C0359527954A95E2F720FFE7CF31
:100AE00025B1206125B9E6CF85B1826085B9089529
:100AF00060E00E944905089561E00E94490508955B
:100B0000CF93DF9384B1826084B984B1846084B967
:100B100084B1886084B984B1806184B984B1806211
:100B200084B985B1846085B985B1826085B983EC6B
:100B300099E00197F1F700C0000085B18B7F85B97E
:100B40008BE594E40197F1F700C0000085B1846063
:100B500085B985B18D7F85B981E20E94780583E1F1
:100B60000E94780586E00E94780582EC0E94780554
:100B700080E20E94780589E00E94780580E80E9462
:100B8000780580E40E947805D0E0C0E0C83F91E09D
:100B9000D90728F480E00E947C052196F7CF88E0F1
:100BA0000E9478058CE00E947805DF91CF9108952E
:100BB00080E80E94780580E40E94780510928C03FA
:100BC00010928D0390E080E0883F21E0920730F49E
:100BD000FC01EC56FE4F10820196F6CF0895882353
:100BE00021F080E20E947805089584E2FBCF262F51
:100BF00026952695269590E034E5239F800D911D3E
:100C00001124442379F0677021E030E002C0220F04
:100C1000331F6A95E2F7FC01EC56FE4F8081822B70
:100C200080830895677021E030E002C0220F331FF7
:100C30006A95E2F7FC01EC56FE4F2095808128234F
:100C400020830895EF92FF920F931F93CF93DF932A
:100C5000E82EF62E00E041C060918D0380918C0358
:100C6000610F40E0800F0E94F7051F5FCE01880FE3
:100C7000991F880F991F880F991F8C1B9D0B1817A0
:100C8000190654F5EE2D0E2C000CFF0BB097802F9B
:100C90006F2D0E9433079F01220F331F220F331F36
:100CA000E20FF31FE80FF11DE457FF4FE491F0E06E
:100CB000812F0E94330702C0F595E7958A95E2F7E8
:100CC000E0FFCACF60918D0380918C03610F41E0FA
:100CD000800F0E94F705C9CF0F5FCF2DD0E0CE0166
:100CE000880F991F880F991F8C0F9D1F08171906D1
:100CF00014F410E0BBCFECE8F3E08F2D880F880FE1
:100D00008F0D9081890F8F5F8083843568F01092FA
:100D10008C03EDE8F3E08F2D880F880F880F8F1973
:100D20009081890F8F5F808380918D03803320F0C5
:100D300010928C0310928D03DF91CF911F910F9130
:100D4000FF90EF9008951F93CF93DF93C82FD92F73
:100D5000162F8881882329F02196612F0E94220670
:100D6000F8CFDF91CF911F91089580938C0360930A
:100D70008D030895CF93DF9380E80E94780580E487
:100D80000E947805D0E0C0E0C83F81E0D80740F479
:100D9000FE01EC56FE4F80810E947C052196F4CF27
:100DA000DF91CF91089581E08093C50080EA809320
:100DB000C400E0ECF0E080818D7F80830895109284
:100DC000C50087E68093C400E0ECF0E080818D7F71
:100DD000808308951092C50089E18093C400E0ECFF
:100DE000F0E080818D7F80830895823029F0833008
:100DF00049F00E94DF0602C00E94D30688E180937A
:100E0000C10008950E94EA06F9CF9091C00095FFB5
:100E1000FCCF8093C6000895CF93DF93C82FD92FBE
:100E20008881882321F021960E940507F9CFDF9160
:100E3000CF910895CF93DF93C82FD92FCE01FE0114
:100E40002491222331F02196FC0184910E94050710
:100E5000F5CFDF91CF9108958091C0008823E4F70A
:100E60008091C6000895991B79E004C0991F9617D8
:100E700008F0961B881F7A95C9F780950895AA1BDC
:100E8000BB1B51E107C0AA1FBB1FA617B70710F075
:100E9000A61BB70B881F991F5A95A9F780959095A7
:100EA000BC01CD010895A1E21A2EAA1BBB1BFD01B6
:100EB0000DC0AA1FBB1FEE1FFF1FA217B307E40739
:100EC000F50720F0A21BB30BE40BF50B661F771F91
:100ED000881F991F1A9469F7609570958095909571
:0E0EE0009B01AC01BD01CF010895F894FFCF36
:100EEE000100000000000002000000005D02000092
:100EFE00000089017E0173013031323334353637CB
:100F0E003839306162636465660044616E732050E7
:100F1E00697A7A6961004F726465722023310052DA
:100F2E00455455524E00594F5552204F524445523A
:0C0F3E0020495320524541445921000035
:00000001FF
